:100000000C9434000C943E000C943E000C943E0082
:100010000C943E000C943E000C943E000C943E0068
:100020000C943E000C943E000C943E000C943E0058
:100030000C943E000C943E000C943E000C943E0048
:100040000C943E000C943E000C943E000C943E0038
:100050000C943E000C943E000C943E000C943E0028
:100060000C943E000C943E0011241FBECFEFD8E04C
:10007000DEBFCDBF0E9440000C945D000C940000D8
:1000800084B1816284B952988BB184708BB990E24B
:1000900021E04A9B04C02D9885B1822703C028988F
:1000A00085B1892785B93FE34DE083E03150404079
:0E00B0008040E1F700C00000ECCFF894FFCFD5
:00000001FF
